{
  "_format": "hh-sol-artifact-1",
  "contractName": "AssetTokenization",
  "sourceName": "contracts/AssetTokenization.sol",
  "abi": [
    {
      "inputs": [
        {
          "internalType": "address",
          "name": "farmer",
          "type": "address"
        }
      ],
      "name": "availableContract",
      "outputs": [
        {
          "internalType": "bool",
          "name": "",
          "type": "bool"
        }
      ],
      "stateMutability": "view",
      "type": "function"
    },
    {
      "inputs": [
        {
          "internalType": "address",
          "name": "farmerAddress",
          "type": "address"
        }
      ],
      "name": "buyNft",
      "outputs": [],
      "stateMutability": "payable",
      "type": "function"
    },
    {
      "inputs": [
        {
          "internalType": "bytes",
          "name": "",
          "type": "bytes"
        }
      ],
      "name": "checkUpkeep",
      "outputs": [
        {
          "internalType": "bool",
          "name": "upkeepNeeded",
          "type": "bool"
        },
        {
          "internalType": "bytes",
          "name": "",
          "type": "bytes"
        }
      ],
      "stateMutability": "view",
      "type": "function"
    },
    {
      "inputs": [
        {
          "internalType": "string",
          "name": "_farmerName",
          "type": "string"
        },
        {
          "internalType": "string",
          "name": "_description",
          "type": "string"
        },
        {
          "internalType": "uint256",
          "name": "_totalMint",
          "type": "uint256"
        },
        {
          "internalType": "uint256",
          "name": "_price",
          "type": "uint256"
        },
        {
          "internalType": "uint256",
          "name": "_expirationDate",
          "type": "uint256"
        }
      ],
      "name": "generateNftContract",
      "outputs": [],
      "stateMutability": "nonpayable",
      "type": "function"
    },
    {
      "inputs": [],
      "name": "getBuyers",
      "outputs": [
        {
          "internalType": "address[]",
          "name": "",
          "type": "address[]"
        }
      ],
      "stateMutability": "view",
      "type": "function"
    },
    {
      "inputs": [],
      "name": "getFarmers",
      "outputs": [
        {
          "internalType": "address[]",
          "name": "",
          "type": "address[]"
        }
      ],
      "stateMutability": "view",
      "type": "function"
    },
    {
      "inputs": [
        {
          "internalType": "address",
          "name": "farmerAddress",
          "type": "address"
        }
      ],
      "name": "getNftContractDetails",
      "outputs": [
        {
          "components": [
            {
              "internalType": "address",
              "name": "farmerAddress",
              "type": "address"
            },
            {
              "internalType": "string",
              "name": "farmerName",
              "type": "string"
            },
            {
              "internalType": "string",
              "name": "description",
              "type": "string"
            },
            {
              "internalType": "uint256",
              "name": "totalMint",
              "type": "uint256"
            },
            {
              "internalType": "uint256",
              "name": "availableMint",
              "type": "uint256"
            },
            {
              "internalType": "uint256",
              "name": "price",
              "type": "uint256"
            },
            {
              "internalType": "uint256",
              "name": "expirationDate",
              "type": "uint256"
            }
          ],
          "internalType": "struct AssetTokenization.NftContractDetails",
          "name": "",
          "type": "tuple"
        }
      ],
      "stateMutability": "view",
      "type": "function"
    },
    {
      "inputs": [
        {
          "internalType": "bytes",
          "name": "",
          "type": "bytes"
        }
      ],
      "name": "performUpkeep",
      "outputs": [],
      "stateMutability": "nonpayable",
      "type": "function"
    }
  ],
  "bytecode": "0x608060405234801561001057600080fd5b50615dbe806100206000396000f3fe608060405260043610620000865760003560e01c8063789f8d401162000055578063789f8d40146200014c57806396b17536146200017c578063f64bfaba14620001c0578063fff1f74314620001f05762000086565b80634585e33b146200008b5780634c48d24814620000b9578063600b695614620000d95780636e04ff0d1462000107575b600080fd5b3480156200009857600080fd5b50620000b76004803603810190620000b191906200134a565b62000234565b005b620000d76004803603810190620000d1919062001404565b620004b1565b005b348015620000e657600080fd5b50620001056004803603810190620000ff9190620015ce565b620005d6565b005b3480156200011457600080fd5b506200013360048036038101906200012d91906200134a565b62000708565b604051620001439291906200173a565b60405180910390f35b3480156200015957600080fd5b50620001646200089d565b6040516200017391906200183c565b60405180910390f35b3480156200018957600080fd5b50620001a86004803603810190620001a2919062001404565b6200092d565b604051620001b791906200197f565b60405180910390f35b348015620001cd57600080fd5b50620001d862000f9c565b604051620001e791906200183c565b60405180910390f35b348015620001fd57600080fd5b506200021c600480360381019062000216919062001404565b620010cc565b6040516200022b9190620019a3565b60405180910390f35b60005b600080549050811015620004ac5760008082815481106200025d576200025c620019c0565b5b9060005260206000200160009054906101000a900473ffffffffffffffffffffffffffffffffffffffff1690506200029581620010cc565b620002a157506200049e565b600160008273ffffffffffffffffffffffffffffffffffffffff1673ffffffffffffffffffffffffffffffffffffffff16815260200190815260200160002060009054906101000a900473ffffffffffffffffffffffffffffffffffffffff1673ffffffffffffffffffffffffffffffffffffffff16632f13b60c6040518163ffffffff1660e01b8152600401602060405180830381865afa1580156200034c573d6000803e3d6000fd5b505050506040513d601f19601f8201168201806040525081019062000372919062001a20565b156200049c57600160008273ffffffffffffffffffffffffffffffffffffffff1673ffffffffffffffffffffffffffffffffffffffff16815260200190815260200160002060009054906101000a900473ffffffffffffffffffffffffffffffffffffffff1673ffffffffffffffffffffffffffffffffffffffff1663740ea8ab6040518163ffffffff1660e01b8152600401600060405180830381600087803b1580156200042057600080fd5b505af115801562000435573d6000803e3d6000fd5b50505050600160008273ffffffffffffffffffffffffffffffffffffffff1673ffffffffffffffffffffffffffffffffffffffff16815260200190815260200160002060006101000a81549073ffffffffffffffffffffffffffffffffffffffff02191690555b505b808060010191505062000237565b505050565b620004bc81620010cc565b620004fe576040517f08c379a0000000000000000000000000000000000000000000000000000000008152600401620004f59062001ab3565b60405180910390fd5b6000339050600160008373ffffffffffffffffffffffffffffffffffffffff1673ffffffffffffffffffffffffffffffffffffffff16815260200190815260200160002060009054906101000a900473ffffffffffffffffffffffffffffffffffffffff1673ffffffffffffffffffffffffffffffffffffffff166354ba0f2734836040518363ffffffff1660e01b81526004016200059e919062001ae6565b6000604051808303818588803b158015620005b857600080fd5b505af1158015620005cd573d6000803e3d6000fd5b50505050505050565b600033905060001515620005ea82620010cc565b1515146200062f576040517f08c379a0000000000000000000000000000000000000000000000000000000008152600401620006269062001b53565b60405180910390fd5b6200063a8162001164565b6000818787878787604051620006509062001267565b620006619695949392919062001bc7565b604051809103906000f0801580156200067e573d6000803e3d6000fd5b50905080600160008473ffffffffffffffffffffffffffffffffffffffff1673ffffffffffffffffffffffffffffffffffffffff16815260200190815260200160002060006101000a81548173ffffffffffffffffffffffffffffffffffffffff021916908373ffffffffffffffffffffffffffffffffffffffff16021790555050505050505050565b6000606060005b6000805490508110156200087e576000808281548110620007355762000734620019c0565b5b9060005260206000200160009054906101000a900473ffffffffffffffffffffffffffffffffffffffff1690506200076d81620010cc565b62000779575062000870565b600160008273ffffffffffffffffffffffffffffffffffffffff1673ffffffffffffffffffffffffffffffffffffffff16815260200190815260200160002060009054906101000a900473ffffffffffffffffffffffffffffffffffffffff1673ffffffffffffffffffffffffffffffffffffffff16632f13b60c6040518163ffffffff1660e01b8152600401602060405180830381865afa15801562000824573d6000803e3d6000fd5b505050506040513d601f19601f820116820180604052508101906200084a919062001a20565b156200086e5760016040518060200160405280600081525093509350505062000896565b505b80806001019150506200070f565b50600060405180602001604052806000815250915091505b9250929050565b606060008054806020026020016040519081016040528092919081815260200182805480156200092357602002820191906000526020600020905b8160009054906101000a900473ffffffffffffffffffffffffffffffffffffffff1673ffffffffffffffffffffffffffffffffffffffff1681526020019060010190808311620008d8575b5050505050905090565b6200093762001275565b6200094282620010cc565b62000984576040517f08c379a00000000000000000000000000000000000000000000000000000000081526004016200097b9062001c92565b60405180910390fd5b6200098e62001275565b6040518060e00160405280600160008673ffffffffffffffffffffffffffffffffffffffff1673ffffffffffffffffffffffffffffffffffffffff16815260200190815260200160002060009054906101000a900473ffffffffffffffffffffffffffffffffffffffff1673ffffffffffffffffffffffffffffffffffffffff1663b7b58b7f6040518163ffffffff1660e01b8152600401602060405180830381865afa15801562000a44573d6000803e3d6000fd5b505050506040513d601f19601f8201168201806040525081019062000a6a919062001ccb565b73ffffffffffffffffffffffffffffffffffffffff168152602001600160008673ffffffffffffffffffffffffffffffffffffffff1673ffffffffffffffffffffffffffffffffffffffff16815260200190815260200160002060009054906101000a900473ffffffffffffffffffffffffffffffffffffffff1673ffffffffffffffffffffffffffffffffffffffff1663ca669a8c6040518163ffffffff1660e01b8152600401600060405180830381865afa15801562000b30573d6000803e3d6000fd5b505050506040513d6000823e3d601f19601f8201168201806040525081019062000b5b919062001d7b565b8152602001600160008673ffffffffffffffffffffffffffffffffffffffff1673ffffffffffffffffffffffffffffffffffffffff16815260200190815260200160002060009054906101000a900473ffffffffffffffffffffffffffffffffffffffff1673ffffffffffffffffffffffffffffffffffffffff16637284e4166040518163ffffffff1660e01b8152600401600060405180830381865afa15801562000c0b573d6000803e3d6000fd5b505050506040513d6000823e3d601f19601f8201168201806040525081019062000c36919062001d7b565b8152602001600160008673ffffffffffffffffffffffffffffffffffffffff1673ffffffffffffffffffffffffffffffffffffffff16815260200190815260200160002060009054906101000a900473ffffffffffffffffffffffffffffffffffffffff1673ffffffffffffffffffffffffffffffffffffffff166359a7715a6040518163ffffffff1660e01b8152600401602060405180830381865afa15801562000ce6573d6000803e3d6000fd5b505050506040513d601f19601f8201168201806040525081019062000d0c919062001de3565b8152602001600160008673ffffffffffffffffffffffffffffffffffffffff1673ffffffffffffffffffffffffffffffffffffffff16815260200190815260200160002060009054906101000a900473ffffffffffffffffffffffffffffffffffffffff1673ffffffffffffffffffffffffffffffffffffffff1663b751cb3b6040518163ffffffff1660e01b8152600401602060405180830381865afa15801562000dbc573d6000803e3d6000fd5b505050506040513d601f19601f8201168201806040525081019062000de2919062001de3565b8152602001600160008673ffffffffffffffffffffffffffffffffffffffff1673ffffffffffffffffffffffffffffffffffffffff16815260200190815260200160002060009054906101000a900473ffffffffffffffffffffffffffffffffffffffff1673ffffffffffffffffffffffffffffffffffffffff1663a035b1fe6040518163ffffffff1660e01b8152600401602060405180830381865afa15801562000e92573d6000803e3d6000fd5b505050506040513d601f19601f8201168201806040525081019062000eb8919062001de3565b8152602001600160008673ffffffffffffffffffffffffffffffffffffffff1673ffffffffffffffffffffffffffffffffffffffff16815260200190815260200160002060009054906101000a900473ffffffffffffffffffffffffffffffffffffffff1673ffffffffffffffffffffffffffffffffffffffff16638f6204876040518163ffffffff1660e01b8152600401602060405180830381865afa15801562000f68573d6000803e3d6000fd5b505050506040513d601f19601f8201168201806040525081019062000f8e919062001de3565b815250905080915050919050565b6060600033905062000fae81620010cc565b62000ff0576040517f08c379a000000000000000000000000000000000000000000000000000000000815260040162000fe79062001ab3565b60405180910390fd5b600160008273ffffffffffffffffffffffffffffffffffffffff1673ffffffffffffffffffffffffffffffffffffffff16815260200190815260200160002060009054906101000a900473ffffffffffffffffffffffffffffffffffffffff1673ffffffffffffffffffffffffffffffffffffffff1663d1b02ba76040518163ffffffff1660e01b8152600401600060405180830381865afa1580156200109b573d6000803e3d6000fd5b505050506040513d6000823e3d601f19601f82011682018060405250810190620010c6919062001eeb565b91505090565b60008073ffffffffffffffffffffffffffffffffffffffff16600160008473ffffffffffffffffffffffffffffffffffffffff1673ffffffffffffffffffffffffffffffffffffffff16815260200190815260200160002060009054906101000a900473ffffffffffffffffffffffffffffffffffffffff1673ffffffffffffffffffffffffffffffffffffffff1614159050919050565b60005b600080549050811015620011ff57600081815481106200118c576200118b620019c0565b5b9060005260206000200160009054906101000a900473ffffffffffffffffffffffffffffffffffffffff1673ffffffffffffffffffffffffffffffffffffffff168273ffffffffffffffffffffffffffffffffffffffff1603620011f1575062001264565b808060010191505062001167565b506000819080600181540180825580915050600190039060005260206000200160009091909190916101000a81548173ffffffffffffffffffffffffffffffffffffffff021916908373ffffffffffffffffffffffffffffffffffffffff1602179055505b50565b613e4c8062001f3d83390190565b6040518060e00160405280600073ffffffffffffffffffffffffffffffffffffffff1681526020016060815260200160608152602001600081526020016000815260200160008152602001600081525090565b6000604051905090565b600080fd5b600080fd5b600080fd5b600080fd5b600080fd5b60008083601f840112620013045762001303620012dc565b5b8235905067ffffffffffffffff811115620013245762001323620012e1565b5b602083019150836001820283011115620013435762001342620012e6565b5b9250929050565b60008060208385031215620013645762001363620012d2565b5b600083013567ffffffffffffffff811115620013855762001384620012d7565b5b6200139385828601620012eb565b92509250509250929050565b600073ffffffffffffffffffffffffffffffffffffffff82169050919050565b6000620013cc826200139f565b9050919050565b620013de81620013bf565b8114620013ea57600080fd5b50565b600081359050620013fe81620013d3565b92915050565b6000602082840312156200141d576200141c620012d2565b5b60006200142d84828501620013ed565b91505092915050565b600080fd5b6000601f19601f8301169050919050565b7f4e487b7100000000000000000000000000000000000000000000000000000000600052604160045260246000fd5b62001486826200143b565b810181811067ffffffffffffffff82111715620014a857620014a76200144c565b5b80604052505050565b6000620014bd620012c8565b9050620014cb82826200147b565b919050565b600067ffffffffffffffff821115620014ee57620014ed6200144c565b5b620014f9826200143b565b9050602081019050919050565b82818337600083830152505050565b60006200152c6200152684620014d0565b620014b1565b9050828152602081018484840111156200154b576200154a62001436565b5b6200155884828562001506565b509392505050565b600082601f830112620015785762001577620012dc565b5b81356200158a84826020860162001515565b91505092915050565b6000819050919050565b620015a88162001593565b8114620015b457600080fd5b50565b600081359050620015c8816200159d565b92915050565b600080600080600060a08688031215620015ed57620015ec620012d2565b5b600086013567ffffffffffffffff8111156200160e576200160d620012d7565b5b6200161c8882890162001560565b955050602086013567ffffffffffffffff81111562001640576200163f620012d7565b5b6200164e8882890162001560565b94505060406200166188828901620015b7565b93505060606200167488828901620015b7565b92505060806200168788828901620015b7565b9150509295509295909350565b60008115159050919050565b620016ab8162001694565b82525050565b600081519050919050565b600082825260208201905092915050565b60005b83811015620016ed578082015181840152602081019050620016d0565b60008484015250505050565b60006200170682620016b1565b620017128185620016bc565b935062001724818560208601620016cd565b6200172f816200143b565b840191505092915050565b6000604082019050620017516000830185620016a0565b8181036020830152620017658184620016f9565b90509392505050565b600081519050919050565b600082825260208201905092915050565b6000819050602082019050919050565b620017a581620013bf565b82525050565b6000620017b983836200179a565b60208301905092915050565b6000602082019050919050565b6000620017df826200176e565b620017eb818562001779565b9350620017f8836200178a565b8060005b838110156200182f578151620018138882620017ab565b97506200182083620017c5565b925050600181019050620017fc565b5085935050505092915050565b60006020820190508181036000830152620018588184620017d2565b905092915050565b600081519050919050565b600082825260208201905092915050565b6000620018898262001860565b6200189581856200186b565b9350620018a7818560208601620016cd565b620018b2816200143b565b840191505092915050565b620018c88162001593565b82525050565b600060e083016000830151620018e860008601826200179a565b50602083015184820360208601526200190282826200187c565b915050604083015184820360408601526200191e82826200187c565b9150506060830151620019356060860182620018bd565b5060808301516200194a6080860182620018bd565b5060a08301516200195f60a0860182620018bd565b5060c08301516200197460c0860182620018bd565b508091505092915050565b600060208201905081810360008301526200199b8184620018ce565b905092915050565b6000602082019050620019ba6000830184620016a0565b92915050565b7f4e487b7100000000000000000000000000000000000000000000000000000000600052603260045260246000fd5b620019fa8162001694565b811462001a0657600080fd5b50565b60008151905062001a1a81620019ef565b92915050565b60006020828403121562001a395762001a38620012d2565b5b600062001a498482850162001a09565b91505092915050565b600082825260208201905092915050565b7f4e6f7420796574206465706c6f79656400000000000000000000000000000000600082015250565b600062001a9b60108362001a52565b915062001aa88262001a63565b602082019050919050565b6000602082019050818103600083015262001ace8162001a8c565b9050919050565b62001ae081620013bf565b82525050565b600060208201905062001afd600083018462001ad5565b92915050565b7f596f757220746f6b656e20697320616c7265616479206465706c6f7965640000600082015250565b600062001b3b601e8362001a52565b915062001b488262001b03565b602082019050919050565b6000602082019050818103600083015262001b6e8162001b2c565b9050919050565b600062001b828262001860565b62001b8e818562001a52565b935062001ba0818560208601620016cd565b62001bab816200143b565b840191505092915050565b62001bc18162001593565b82525050565b600060c08201905062001bde600083018962001ad5565b818103602083015262001bf2818862001b75565b9050818103604083015262001c08818762001b75565b905062001c19606083018662001bb6565b62001c28608083018562001bb6565b62001c3760a083018462001bb6565b979650505050505050565b7f6e6f7420617661696c61626c6500000000000000000000000000000000000000600082015250565b600062001c7a600d8362001a52565b915062001c878262001c42565b602082019050919050565b6000602082019050818103600083015262001cad8162001c6b565b9050919050565b60008151905062001cc581620013d3565b92915050565b60006020828403121562001ce45762001ce3620012d2565b5b600062001cf48482850162001cb4565b91505092915050565b600062001d1462001d0e84620014d0565b620014b1565b90508281526020810184848401111562001d335762001d3262001436565b5b62001d40848285620016cd565b509392505050565b600082601f83011262001d605762001d5f620012dc565b5b815162001d7284826020860162001cfd565b91505092915050565b60006020828403121562001d945762001d93620012d2565b5b600082015167ffffffffffffffff81111562001db55762001db4620012d7565b5b62001dc38482850162001d48565b91505092915050565b60008151905062001ddd816200159d565b92915050565b60006020828403121562001dfc5762001dfb620012d2565b5b600062001e0c8482850162001dcc565b91505092915050565b600067ffffffffffffffff82111562001e335762001e326200144c565b5b602082029050602081019050919050565b600062001e5b62001e558462001e15565b620014b1565b9050808382526020820190506020840283018581111562001e815762001e80620012e6565b5b835b8181101562001eae578062001e99888262001cb4565b84526020840193505060208101905062001e83565b5050509392505050565b600082601f83011262001ed05762001ecf620012dc565b5b815162001ee284826020860162001e44565b91505092915050565b60006020828403121562001f045762001f03620012d2565b5b600082015167ffffffffffffffff81111562001f255762001f24620012d7565b5b62001f338482850162001eb8565b9150509291505056fe60806040523480156200001157600080fd5b5060405162003e4c38038062003e4c833981810160405281019062000037919062000389565b6040518060400160405280600881526020017f4661726d204e46540000000000000000000000000000000000000000000000008152506040518060400160405280600481526020017f4641524d000000000000000000000000000000000000000000000000000000008152508160009081620000b49190620006a4565b508060019081620000c69190620006a4565b50505085600660006101000a81548173ffffffffffffffffffffffffffffffffffffffff021916908373ffffffffffffffffffffffffffffffffffffffff16021790555084600790816200011b9190620006a4565b5083600890816200012d9190620006a4565b508260098190555082600a8190555081600b8190555080600c819055505050505050506200078b565b6000604051905090565b600080fd5b600080fd5b600073ffffffffffffffffffffffffffffffffffffffff82169050919050565b600062000197826200016a565b9050919050565b620001a9816200018a565b8114620001b557600080fd5b50565b600081519050620001c9816200019e565b92915050565b600080fd5b600080fd5b6000601f19601f8301169050919050565b7f4e487b7100000000000000000000000000000000000000000000000000000000600052604160045260246000fd5b6200022482620001d9565b810181811067ffffffffffffffff82111715620002465762000245620001ea565b5b80604052505050565b60006200025b62000156565b905062000269828262000219565b919050565b600067ffffffffffffffff8211156200028c576200028b620001ea565b5b6200029782620001d9565b9050602081019050919050565b60005b83811015620002c4578082015181840152602081019050620002a7565b60008484015250505050565b6000620002e7620002e1846200026e565b6200024f565b905082815260208101848484011115620003065762000305620001d4565b5b62000313848285620002a4565b509392505050565b600082601f830112620003335762000332620001cf565b5b815162000345848260208601620002d0565b91505092915050565b6000819050919050565b62000363816200034e565b81146200036f57600080fd5b50565b600081519050620003838162000358565b92915050565b60008060008060008060c08789031215620003a957620003a862000160565b5b6000620003b989828a01620001b8565b965050602087015167ffffffffffffffff811115620003dd57620003dc62000165565b5b620003eb89828a016200031b565b955050604087015167ffffffffffffffff8111156200040f576200040e62000165565b5b6200041d89828a016200031b565b94505060606200043089828a0162000372565b93505060806200044389828a0162000372565b92505060a06200045689828a0162000372565b9150509295509295509295565b600081519050919050565b7f4e487b7100000000000000000000000000000000000000000000000000000000600052602260045260246000fd5b60006002820490506001821680620004b657607f821691505b602082108103620004cc57620004cb6200046e565b5b50919050565b60008190508160005260206000209050919050565b60006020601f8301049050919050565b600082821b905092915050565b600060088302620005367fffffffffffffffffffffffffffffffffffffffffffffffffffffffffffffffff82620004f7565b620005428683620004f7565b95508019841693508086168417925050509392505050565b6000819050919050565b6000620005856200057f62000579846200034e565b6200055a565b6200034e565b9050919050565b6000819050919050565b620005a18362000564565b620005b9620005b0826200058c565b84845462000504565b825550505050565b600090565b620005d0620005c1565b620005dd81848462000596565b505050565b5b818110156200060557620005f9600082620005c6565b600181019050620005e3565b5050565b601f82111562000654576200061e81620004d2565b6200062984620004e7565b8101602085101562000639578190505b620006516200064885620004e7565b830182620005e2565b50505b505050565b600082821c905092915050565b6000620006796000198460080262000659565b1980831691505092915050565b600062000694838362000666565b9150826002028217905092915050565b620006af8262000463565b67ffffffffffffffff811115620006cb57620006ca620001ea565b5b620006d782546200049d565b620006e482828562000609565b600060209050601f8311600181146200071c576000841562000707578287015190505b62000713858262000686565b86555062000783565b601f1984166200072c86620004d2565b60005b8281101562000756578489015182556001820191506020850194506020810190506200072f565b8683101562000776578489015162000772601f89168262000666565b8355505b6001600288020188555050505b505050505050565b6136b1806200079b6000396000f3fe60806040526004361061014b5760003560e01c8063740ea8ab116100b6578063b7b58b7f1161006f578063b7b58b7f14610473578063b88d4fde1461049e578063c87b56dd146104c7578063ca669a8c14610504578063d1b02ba71461052f578063e985e9c51461055a5761014b565b8063740ea8ab146103875780638f6204871461039e57806395d89b41146103c9578063a035b1fe146103f4578063a22cb4651461041f578063b751cb3b146104485761014b565b806342842e0e1161010857806342842e0e1461027257806354ba0f271461029b57806359a7715a146102b75780636352211e146102e257806370a082311461031f5780637284e4161461035c5761014b565b806301ffc9a71461015057806306fdde031461018d578063081812fc146101b8578063095ea7b3146101f557806323b872dd1461021e5780632f13b60c14610247575b600080fd5b34801561015c57600080fd5b50610177600480360381019061017291906121e0565b610597565b6040516101849190612228565b60405180910390f35b34801561019957600080fd5b506101a2610679565b6040516101af91906122d3565b60405180910390f35b3480156101c457600080fd5b506101df60048036038101906101da919061232b565b61070b565b6040516101ec9190612399565b60405180910390f35b34801561020157600080fd5b5061021c600480360381019061021791906123e0565b610751565b005b34801561022a57600080fd5b5061024560048036038101906102409190612420565b610868565b005b34801561025357600080fd5b5061025c6108c8565b6040516102699190612228565b60405180910390f35b34801561027e57600080fd5b5061029960048036038101906102949190612420565b6108e5565b005b6102b560048036038101906102b09190612473565b610905565b005b3480156102c357600080fd5b506102cc610ae9565b6040516102d991906124af565b60405180910390f35b3480156102ee57600080fd5b506103096004803603810190610304919061232b565b610aef565b6040516103169190612399565b60405180910390f35b34801561032b57600080fd5b5061034660048036038101906103419190612473565b610b75565b60405161035391906124af565b60405180910390f35b34801561036857600080fd5b50610371610c2c565b60405161037e91906122d3565b60405180910390f35b34801561039357600080fd5b5061039c610cba565b005b3480156103aa57600080fd5b506103b3610d2e565b6040516103c091906124af565b60405180910390f35b3480156103d557600080fd5b506103de610d34565b6040516103eb91906122d3565b60405180910390f35b34801561040057600080fd5b50610409610dc6565b60405161041691906124af565b60405180910390f35b34801561042b57600080fd5b50610446600480360381019061044191906124f6565b610dcc565b005b34801561045457600080fd5b5061045d610de2565b60405161046a91906124af565b60405180910390f35b34801561047f57600080fd5b50610488610de8565b6040516104959190612399565b60405180910390f35b3480156104aa57600080fd5b506104c560048036038101906104c0919061266b565b610e0e565b005b3480156104d357600080fd5b506104ee60048036038101906104e9919061232b565b610e70565b6040516104fb91906122d3565b60405180910390f35b34801561051057600080fd5b50610519610ee0565b60405161052691906122d3565b60405180910390f35b34801561053b57600080fd5b50610544610f6e565b60405161055191906127ac565b60405180910390f35b34801561056657600080fd5b50610581600480360381019061057c91906127ce565b611045565b60405161058e9190612228565b60405180910390f35b60007f80ac58cd000000000000000000000000000000000000000000000000000000007bffffffffffffffffffffffffffffffffffffffffffffffffffffffff1916827bffffffffffffffffffffffffffffffffffffffffffffffffffffffff1916148061066257507f5b5e139f000000000000000000000000000000000000000000000000000000007bffffffffffffffffffffffffffffffffffffffffffffffffffffffff1916827bffffffffffffffffffffffffffffffffffffffffffffffffffffffff1916145b806106725750610671826110d9565b5b9050919050565b6060600080546106889061283d565b80601f01602080910402602001604051908101604052809291908181526020018280546106b49061283d565b80156107015780601f106106d657610100808354040283529160200191610701565b820191906000526020600020905b8154815290600101906020018083116106e457829003601f168201915b5050505050905090565b600061071682611143565b6004600083815260200190815260200160002060009054906101000a900473ffffffffffffffffffffffffffffffffffffffff169050919050565b600061075c82610aef565b90508073ffffffffffffffffffffffffffffffffffffffff168373ffffffffffffffffffffffffffffffffffffffff16036107cc576040517f08c379a00000000000000000000000000000000000000000000000000000000081526004016107c3906128e0565b60405180910390fd5b8073ffffffffffffffffffffffffffffffffffffffff166107eb61118e565b73ffffffffffffffffffffffffffffffffffffffff16148061081a57506108198161081461118e565b611045565b5b610859576040517f08c379a000000000000000000000000000000000000000000000000000000000815260040161085090612972565b60405180910390fd5b6108638383611196565b505050565b61087961087361118e565b8261124f565b6108b8576040517f08c379a00000000000000000000000000000000000000000000000000000000081526004016108af90612a04565b60405180910390fd5b6108c38383836112e4565b505050565b600042600c5410156108dd57600190506108e2565b600090505b90565b61090083838360405180602001604052806000815250610e0e565b505050565b6000600a541161094a576040517f08c379a000000000000000000000000000000000000000000000000000000000815260040161094190612a70565b60405180910390fd5b600015156109566108c8565b151514610998576040517f08c379a000000000000000000000000000000000000000000000000000000000815260040161098f90612adc565b60405180910390fd5b600b5434146109dc576040517f08c379a00000000000000000000000000000000000000000000000000000000081526004016109d390612b48565b60405180910390fd5b60006109e8600d6115dd565b90506109f482826115eb565b6109fe600d611609565b600a6000815480929190610a1190612b97565b91905055506000600660009054906101000a900473ffffffffffffffffffffffffffffffffffffffff1673ffffffffffffffffffffffffffffffffffffffff1634604051610a5e90612bf1565b60006040518083038185875af1925050503d8060008114610a9b576040519150601f19603f3d011682016040523d82523d6000602084013e610aa0565b606091505b5050905080610ae4576040517f08c379a0000000000000000000000000000000000000000000000000000000008152600401610adb90612c52565b60405180910390fd5b505050565b60095481565b600080610afb8361161f565b9050600073ffffffffffffffffffffffffffffffffffffffff168173ffffffffffffffffffffffffffffffffffffffff1603610b6c576040517f08c379a0000000000000000000000000000000000000000000000000000000008152600401610b6390612cbe565b60405180910390fd5b80915050919050565b60008073ffffffffffffffffffffffffffffffffffffffff168273ffffffffffffffffffffffffffffffffffffffff1603610be5576040517f08c379a0000000000000000000000000000000000000000000000000000000008152600401610bdc90612d50565b60405180910390fd5b600360008373ffffffffffffffffffffffffffffffffffffffff1673ffffffffffffffffffffffffffffffffffffffff168152602001908152602001600020549050919050565b60088054610c399061283d565b80601f0160208091040260200160405190810160405280929190818152602001828054610c659061283d565b8015610cb25780601f10610c8757610100808354040283529160200191610cb2565b820191906000526020600020905b815481529060010190602001808311610c9557829003601f168201915b505050505081565b610cc26108c8565b610d01576040517f08c379a0000000000000000000000000000000000000000000000000000000008152600401610cf890612dbc565b60405180910390fd5b60005b610d0e600d6115dd565b811015610d2b57610d1e8161165c565b8080600101915050610d04565b50565b600c5481565b606060018054610d439061283d565b80601f0160208091040260200160405190810160405280929190818152602001828054610d6f9061283d565b8015610dbc5780601f10610d9157610100808354040283529160200191610dbc565b820191906000526020600020905b815481529060010190602001808311610d9f57829003601f168201915b5050505050905090565b600b5481565b610dde610dd761118e565b83836117aa565b5050565b600a5481565b600660009054906101000a900473ffffffffffffffffffffffffffffffffffffffff1681565b610e1f610e1961118e565b8361124f565b610e5e576040517f08c379a0000000000000000000000000000000000000000000000000000000008152600401610e5590612a04565b60405180910390fd5b610e6a84848484611916565b50505050565b60606000610eb0610e7f610679565b610e8885611972565b6008604051602001610e9c93929190613078565b604051602081830303815290604052611a40565b9050600081604051602001610ec59190613137565b60405160208183030381529060405290508092505050919050565b60078054610eed9061283d565b80601f0160208091040260200160405190810160405280929190818152602001828054610f199061283d565b8015610f665780601f10610f3b57610100808354040283529160200191610f66565b820191906000526020600020905b815481529060010190602001808311610f4957829003601f168201915b505050505081565b60606000610f7c600d6115dd565b67ffffffffffffffff811115610f9557610f94612540565b5b604051908082528060200260200182016040528015610fc35781602001602082028036833780820191505090505b50905060005b610fd3600d6115dd565b81101561103d57610fe381610aef565b828281518110610ff657610ff5613159565b5b602002602001019073ffffffffffffffffffffffffffffffffffffffff16908173ffffffffffffffffffffffffffffffffffffffff16815250508080600101915050610fc9565b508091505090565b6000600560008473ffffffffffffffffffffffffffffffffffffffff1673ffffffffffffffffffffffffffffffffffffffff16815260200190815260200160002060008373ffffffffffffffffffffffffffffffffffffffff1673ffffffffffffffffffffffffffffffffffffffff16815260200190815260200160002060009054906101000a900460ff16905092915050565b60007f01ffc9a7000000000000000000000000000000000000000000000000000000007bffffffffffffffffffffffffffffffffffffffffffffffffffffffff1916827bffffffffffffffffffffffffffffffffffffffffffffffffffffffff1916149050919050565b61114c81611bb2565b61118b576040517f08c379a000000000000000000000000000000000000000000000000000000000815260040161118290612cbe565b60405180910390fd5b50565b600033905090565b816004600083815260200190815260200160002060006101000a81548173ffffffffffffffffffffffffffffffffffffffff021916908373ffffffffffffffffffffffffffffffffffffffff160217905550808273ffffffffffffffffffffffffffffffffffffffff1661120983610aef565b73ffffffffffffffffffffffffffffffffffffffff167f8c5be1e5ebec7d5bd14f71427d1e84f3dd0314c0f7b2291e5b200ac8c7c3b92560405160405180910390a45050565b60008061125b83610aef565b90508073ffffffffffffffffffffffffffffffffffffffff168473ffffffffffffffffffffffffffffffffffffffff16148061129d575061129c8185611045565b5b806112db57508373ffffffffffffffffffffffffffffffffffffffff166112c38461070b565b73ffffffffffffffffffffffffffffffffffffffff16145b91505092915050565b8273ffffffffffffffffffffffffffffffffffffffff1661130482610aef565b73ffffffffffffffffffffffffffffffffffffffff161461135a576040517f08c379a0000000000000000000000000000000000000000000000000000000008152600401611351906131fa565b60405180910390fd5b600073ffffffffffffffffffffffffffffffffffffffff168273ffffffffffffffffffffffffffffffffffffffff16036113c9576040517f08c379a00000000000000000000000000000000000000000000000000000000081526004016113c09061328c565b60405180910390fd5b6113d68383836001611bf3565b8273ffffffffffffffffffffffffffffffffffffffff166113f682610aef565b73ffffffffffffffffffffffffffffffffffffffff161461144c576040517f08c379a0000000000000000000000000000000000000000000000000000000008152600401611443906131fa565b60405180910390fd5b6004600082815260200190815260200160002060006101000a81549073ffffffffffffffffffffffffffffffffffffffff02191690556001600360008573ffffffffffffffffffffffffffffffffffffffff1673ffffffffffffffffffffffffffffffffffffffff168152602001908152602001600020600082825403925050819055506001600360008473ffffffffffffffffffffffffffffffffffffffff1673ffffffffffffffffffffffffffffffffffffffff16815260200190815260200160002060008282540192505081905550816002600083815260200190815260200160002060006101000a81548173ffffffffffffffffffffffffffffffffffffffff021916908373ffffffffffffffffffffffffffffffffffffffff160217905550808273ffffffffffffffffffffffffffffffffffffffff168473ffffffffffffffffffffffffffffffffffffffff167fddf252ad1be2c89b69c2b068fc378daa952ba7f163c4a11628f55a4df523b3ef60405160405180910390a46115d88383836001611bf9565b505050565b600081600001549050919050565b611605828260405180602001604052806000815250611bff565b5050565b6001816000016000828254019250508190555050565b60006002600083815260200190815260200160002060009054906101000a900473ffffffffffffffffffffffffffffffffffffffff169050919050565b600061166782610aef565b9050611677816000846001611bf3565b61168082610aef565b90506004600083815260200190815260200160002060006101000a81549073ffffffffffffffffffffffffffffffffffffffff02191690556001600360008373ffffffffffffffffffffffffffffffffffffffff1673ffffffffffffffffffffffffffffffffffffffff168152602001908152602001600020600082825403925050819055506002600083815260200190815260200160002060006101000a81549073ffffffffffffffffffffffffffffffffffffffff021916905581600073ffffffffffffffffffffffffffffffffffffffff168273ffffffffffffffffffffffffffffffffffffffff167fddf252ad1be2c89b69c2b068fc378daa952ba7f163c4a11628f55a4df523b3ef60405160405180910390a46117a6816000846001611bf9565b5050565b8173ffffffffffffffffffffffffffffffffffffffff168373ffffffffffffffffffffffffffffffffffffffff1603611818576040517f08c379a000000000000000000000000000000000000000000000000000000000815260040161180f906132f8565b60405180910390fd5b80600560008573ffffffffffffffffffffffffffffffffffffffff1673ffffffffffffffffffffffffffffffffffffffff16815260200190815260200160002060008473ffffffffffffffffffffffffffffffffffffffff1673ffffffffffffffffffffffffffffffffffffffff16815260200190815260200160002060006101000a81548160ff0219169083151502179055508173ffffffffffffffffffffffffffffffffffffffff168373ffffffffffffffffffffffffffffffffffffffff167f17307eab39ab6107e8899845ad3d59bd9653f200f220920489ca2b5937696c31836040516119099190612228565b60405180910390a3505050565b6119218484846112e4565b61192d84848484611c5a565b61196c576040517f08c379a00000000000000000000000000000000000000000000000000000000081526004016119639061338a565b60405180910390fd5b50505050565b60606000600161198184611de1565b01905060008167ffffffffffffffff8111156119a05761199f612540565b5b6040519080825280601f01601f1916602001820160405280156119d25781602001600182028036833780820191505090505b509050600082602001820190505b600115611a35578080600190039150507f3031323334353637383961626364656600000000000000000000000000000000600a86061a8153600a8581611a2957611a286133aa565b5b049450600085036119e0575b819350505050919050565b60606000825103611a6257604051806020016040528060008152509050611bad565b600060405180606001604052806040815260200161363c6040913990506000600360028551611a9191906133d9565b611a9b919061340d565b6004611aa7919061343e565b67ffffffffffffffff811115611ac057611abf612540565b5b6040519080825280601f01601f191660200182016040528015611af25781602001600182028036833780820191505090505b50905060018201602082018586518701602081018051600082525b82841015611b68576003840193508351603f8160121c168701518653600186019550603f81600c1c168701518653600186019550603f8160061c168701518653600186019550603f8116870151865360018601955050611b0d565b80825260038a510660018114611b855760028114611b9857611ba0565b603d6001870353603d6002870353611ba0565b603d60018703535b5050505050505080925050505b919050565b60008073ffffffffffffffffffffffffffffffffffffffff16611bd48361161f565b73ffffffffffffffffffffffffffffffffffffffff1614159050919050565b50505050565b50505050565b611c098383611f34565b611c166000848484611c5a565b611c55576040517f08c379a0000000000000000000000000000000000000000000000000000000008152600401611c4c9061338a565b60405180910390fd5b505050565b6000611c7b8473ffffffffffffffffffffffffffffffffffffffff16612151565b15611dd4578373ffffffffffffffffffffffffffffffffffffffff1663150b7a02611ca461118e565b8786866040518563ffffffff1660e01b8152600401611cc694939291906134d5565b6020604051808303816000875af1925050508015611d0257506040513d601f19601f82011682018060405250810190611cff9190613536565b60015b611d84573d8060008114611d32576040519150601f19603f3d011682016040523d82523d6000602084013e611d37565b606091505b506000815103611d7c576040517f08c379a0000000000000000000000000000000000000000000000000000000008152600401611d739061338a565b60405180910390fd5b805181602001fd5b63150b7a0260e01b7bffffffffffffffffffffffffffffffffffffffffffffffffffffffff1916817bffffffffffffffffffffffffffffffffffffffffffffffffffffffff191614915050611dd9565b600190505b949350505050565b600080600090507a184f03e93ff9f4daa797ed6e38ed64bf6a1f0100000000000000008310611e3f577a184f03e93ff9f4daa797ed6e38ed64bf6a1f0100000000000000008381611e3557611e346133aa565b5b0492506040810190505b6d04ee2d6d415b85acef81000000008310611e7c576d04ee2d6d415b85acef81000000008381611e7257611e716133aa565b5b0492506020810190505b662386f26fc100008310611eab57662386f26fc100008381611ea157611ea06133aa565b5b0492506010810190505b6305f5e1008310611ed4576305f5e1008381611eca57611ec96133aa565b5b0492506008810190505b6127108310611ef9576127108381611eef57611eee6133aa565b5b0492506004810190505b60648310611f1c5760648381611f1257611f116133aa565b5b0492506002810190505b600a8310611f2b576001810190505b80915050919050565b600073ffffffffffffffffffffffffffffffffffffffff168273ffffffffffffffffffffffffffffffffffffffff1603611fa3576040517f08c379a0000000000000000000000000000000000000000000000000000000008152600401611f9a906135af565b60405180910390fd5b611fac81611bb2565b15611fec576040517f08c379a0000000000000000000000000000000000000000000000000000000008152600401611fe39061361b565b60405180910390fd5b611ffa600083836001611bf3565b61200381611bb2565b15612043576040517f08c379a000000000000000000000000000000000000000000000000000000000815260040161203a9061361b565b60405180910390fd5b6001600360008473ffffffffffffffffffffffffffffffffffffffff1673ffffffffffffffffffffffffffffffffffffffff16815260200190815260200160002060008282540192505081905550816002600083815260200190815260200160002060006101000a81548173ffffffffffffffffffffffffffffffffffffffff021916908373ffffffffffffffffffffffffffffffffffffffff160217905550808273ffffffffffffffffffffffffffffffffffffffff16600073ffffffffffffffffffffffffffffffffffffffff167fddf252ad1be2c89b69c2b068fc378daa952ba7f163c4a11628f55a4df523b3ef60405160405180910390a461214d600083836001611bf9565b5050565b6000808273ffffffffffffffffffffffffffffffffffffffff163b119050919050565b6000604051905090565b600080fd5b600080fd5b60007fffffffff0000000000000000000000000000000000000000000000000000000082169050919050565b6121bd81612188565b81146121c857600080fd5b50565b6000813590506121da816121b4565b92915050565b6000602082840312156121f6576121f561217e565b5b6000612204848285016121cb565b91505092915050565b60008115159050919050565b6122228161220d565b82525050565b600060208201905061223d6000830184612219565b92915050565b600081519050919050565b600082825260208201905092915050565b60005b8381101561227d578082015181840152602081019050612262565b60008484015250505050565b6000601f19601f8301169050919050565b60006122a582612243565b6122af818561224e565b93506122bf81856020860161225f565b6122c881612289565b840191505092915050565b600060208201905081810360008301526122ed818461229a565b905092915050565b6000819050919050565b612308816122f5565b811461231357600080fd5b50565b600081359050612325816122ff565b92915050565b6000602082840312156123415761234061217e565b5b600061234f84828501612316565b91505092915050565b600073ffffffffffffffffffffffffffffffffffffffff82169050919050565b600061238382612358565b9050919050565b61239381612378565b82525050565b60006020820190506123ae600083018461238a565b92915050565b6123bd81612378565b81146123c857600080fd5b50565b6000813590506123da816123b4565b92915050565b600080604083850312156123f7576123f661217e565b5b6000612405858286016123cb565b925050602061241685828601612316565b9150509250929050565b6000806000606084860312156124395761243861217e565b5b6000612447868287016123cb565b9350506020612458868287016123cb565b925050604061246986828701612316565b9150509250925092565b6000602082840312156124895761248861217e565b5b6000612497848285016123cb565b91505092915050565b6124a9816122f5565b82525050565b60006020820190506124c460008301846124a0565b92915050565b6124d38161220d565b81146124de57600080fd5b50565b6000813590506124f0816124ca565b92915050565b6000806040838503121561250d5761250c61217e565b5b600061251b858286016123cb565b925050602061252c858286016124e1565b9150509250929050565b600080fd5b600080fd5b7f4e487b7100000000000000000000000000000000000000000000000000000000600052604160045260246000fd5b61257882612289565b810181811067ffffffffffffffff8211171561259757612596612540565b5b80604052505050565b60006125aa612174565b90506125b6828261256f565b919050565b600067ffffffffffffffff8211156125d6576125d5612540565b5b6125df82612289565b9050602081019050919050565b82818337600083830152505050565b600061260e612609846125bb565b6125a0565b90508281526020810184848401111561262a5761262961253b565b5b6126358482856125ec565b509392505050565b600082601f83011261265257612651612536565b5b81356126628482602086016125fb565b91505092915050565b600080600080608085870312156126855761268461217e565b5b6000612693878288016123cb565b94505060206126a4878288016123cb565b93505060406126b587828801612316565b925050606085013567ffffffffffffffff8111156126d6576126d5612183565b5b6126e28782880161263d565b91505092959194509250565b600081519050919050565b600082825260208201905092915050565b6000819050602082019050919050565b61272381612378565b82525050565b6000612735838361271a565b60208301905092915050565b6000602082019050919050565b6000612759826126ee565b61276381856126f9565b935061276e8361270a565b8060005b8381101561279f5781516127868882612729565b975061279183612741565b925050600181019050612772565b5085935050505092915050565b600060208201905081810360008301526127c6818461274e565b905092915050565b600080604083850312156127e5576127e461217e565b5b60006127f3858286016123cb565b9250506020612804858286016123cb565b9150509250929050565b7f4e487b7100000000000000000000000000000000000000000000000000000000600052602260045260246000fd5b6000600282049050600182168061285557607f821691505b6020821081036128685761286761280e565b5b50919050565b7f4552433732313a20617070726f76616c20746f2063757272656e74206f776e6560008201527f7200000000000000000000000000000000000000000000000000000000000000602082015250565b60006128ca60218361224e565b91506128d58261286e565b604082019050919050565b600060208201905081810360008301526128f9816128bd565b9050919050565b7f4552433732313a20617070726f76652063616c6c6572206973206e6f7420746f60008201527f6b656e206f776e6572206f7220617070726f76656420666f7220616c6c000000602082015250565b600061295c603d8361224e565b915061296782612900565b604082019050919050565b6000602082019050818103600083015261298b8161294f565b9050919050565b7f4552433732313a2063616c6c6572206973206e6f7420746f6b656e206f776e6560008201527f72206f7220617070726f76656400000000000000000000000000000000000000602082015250565b60006129ee602d8361224e565b91506129f982612992565b604082019050919050565b60006020820190508181036000830152612a1d816129e1565b9050919050565b7f4e6f7420656e6f756768206e6674000000000000000000000000000000000000600082015250565b6000612a5a600e8361224e565b9150612a6582612a24565b602082019050919050565b60006020820190508181036000830152612a8981612a4d565b9050919050565b7f416c726561647920657870697265640000000000000000000000000000000000600082015250565b6000612ac6600f8361224e565b9150612ad182612a90565b602082019050919050565b60006020820190508181036000830152612af581612ab9565b9050919050565b7f496e636f727265637420616d6f756e74206f6620746f6b656e73000000000000600082015250565b6000612b32601a8361224e565b9150612b3d82612afc565b602082019050919050565b60006020820190508181036000830152612b6181612b25565b9050919050565b7f4e487b7100000000000000000000000000000000000000000000000000000000600052601160045260246000fd5b6000612ba2826122f5565b915060008203612bb557612bb4612b68565b5b600182039050919050565b600081905092915050565b50565b6000612bdb600083612bc0565b9150612be682612bcb565b600082019050919050565b6000612bfc82612bce565b9150819050919050565b7f4661696c656420746f2077697468647261772041564158000000000000000000600082015250565b6000612c3c60178361224e565b9150612c4782612c06565b602082019050919050565b60006020820190508181036000830152612c6b81612c2f565b9050919050565b7f4552433732313a20696e76616c696420746f6b656e2049440000000000000000600082015250565b6000612ca860188361224e565b9150612cb382612c72565b602082019050919050565b60006020820190508181036000830152612cd781612c9b565b9050919050565b7f4552433732313a2061646472657373207a65726f206973206e6f74206120766160008201527f6c6964206f776e65720000000000000000000000000000000000000000000000602082015250565b6000612d3a60298361224e565b9150612d4582612cde565b604082019050919050565b60006020820190508181036000830152612d6981612d2d565b9050919050565b7f7374696c6c20617661696c61626c650000000000000000000000000000000000600082015250565b6000612da6600f8361224e565b9150612db182612d70565b602082019050919050565b60006020820190508181036000830152612dd581612d99565b9050919050565b600081905092915050565b7f7b226e616d65223a202200000000000000000000000000000000000000000000600082015250565b6000612e1d600a83612ddc565b9150612e2882612de7565b600a82019050919050565b6000612e3e82612243565b612e488185612ddc565b9350612e5881856020860161225f565b80840191505092915050565b7f202d2d204e465420233a20000000000000000000000000000000000000000000600082015250565b6000612e9a600b83612ddc565b9150612ea582612e64565b600b82019050919050565b7f222c20226465736372697074696f6e223a202200000000000000000000000000600082015250565b6000612ee6601383612ddc565b9150612ef182612eb0565b601382019050919050565b60008190508160005260206000209050919050565b60008154612f1e8161283d565b612f288186612ddc565b94506001821660008114612f435760018114612f5857612f8b565b60ff1983168652811515820286019350612f8b565b612f6185612efc565b60005b83811015612f8357815481890152600182019150602081019050612f64565b838801955050505b50505092915050565b7f222c2022696d616765223a202200000000000000000000000000000000000000600082015250565b6000612fca600d83612ddc565b9150612fd582612f94565b600d82019050919050565b7f68747470733a2f2f692e696d6775722e636f6d2f475a43647458752e6a706700600082015250565b6000613016601f83612ddc565b915061302182612fe0565b601f82019050919050565b7f227d000000000000000000000000000000000000000000000000000000000000600082015250565b6000613062600283612ddc565b915061306d8261302c565b600282019050919050565b600061308382612e10565b915061308f8286612e33565b915061309a82612e8d565b91506130a68285612e33565b91506130b182612ed9565b91506130bd8284612f11565b91506130c882612fbd565b91506130d382613009565b91506130de82613055565b9150819050949350505050565b7f646174613a6170706c69636174696f6e2f6a736f6e3b6261736536342c000000600082015250565b6000613121601d83612ddc565b915061312c826130eb565b601d82019050919050565b600061314282613114565b915061314e8284612e33565b915081905092915050565b7f4e487b7100000000000000000000000000000000000000000000000000000000600052603260045260246000fd5b7f4552433732313a207472616e736665722066726f6d20696e636f72726563742060008201527f6f776e6572000000000000000000000000000000000000000000000000000000602082015250565b60006131e460258361224e565b91506131ef82613188565b604082019050919050565b60006020820190508181036000830152613213816131d7565b9050919050565b7f4552433732313a207472616e7366657220746f20746865207a65726f2061646460008201527f7265737300000000000000000000000000000000000000000000000000000000602082015250565b600061327660248361224e565b91506132818261321a565b604082019050919050565b600060208201905081810360008301526132a581613269565b9050919050565b7f4552433732313a20617070726f766520746f2063616c6c657200000000000000600082015250565b60006132e260198361224e565b91506132ed826132ac565b602082019050919050565b60006020820190508181036000830152613311816132d5565b9050919050565b7f4552433732313a207472616e7366657220746f206e6f6e20455243373231526560008201527f63656976657220696d706c656d656e7465720000000000000000000000000000602082015250565b600061337460328361224e565b915061337f82613318565b604082019050919050565b600060208201905081810360008301526133a381613367565b9050919050565b7f4e487b7100000000000000000000000000000000000000000000000000000000600052601260045260246000fd5b60006133e4826122f5565b91506133ef836122f5565b925082820190508082111561340757613406612b68565b5b92915050565b6000613418826122f5565b9150613423836122f5565b925082613433576134326133aa565b5b828204905092915050565b6000613449826122f5565b9150613454836122f5565b9250828202613462816122f5565b9150828204841483151761347957613478612b68565b5b5092915050565b600081519050919050565b600082825260208201905092915050565b60006134a782613480565b6134b1818561348b565b93506134c181856020860161225f565b6134ca81612289565b840191505092915050565b60006080820190506134ea600083018761238a565b6134f7602083018661238a565b61350460408301856124a0565b8181036060830152613516818461349c565b905095945050505050565b600081519050613530816121b4565b92915050565b60006020828403121561354c5761354b61217e565b5b600061355a84828501613521565b91505092915050565b7f4552433732313a206d696e7420746f20746865207a65726f2061646472657373600082015250565b600061359960208361224e565b91506135a482613563565b602082019050919050565b600060208201905081810360008301526135c88161358c565b9050919050565b7f4552433732313a20746f6b656e20616c7265616479206d696e74656400000000600082015250565b6000613605601c8361224e565b9150613610826135cf565b602082019050919050565b60006020820190508181036000830152613634816135f8565b905091905056fe4142434445464748494a4b4c4d4e4f505152535455565758595a6162636465666768696a6b6c6d6e6f707172737475767778797a303132333435363738392b2fa2646970667358221220c059ae8611301557bd638405f5c14ac6a8407e6947fbaf0576484012d92c2b1164736f6c63430008180033a26469706673582212206e708d0b427c7d7d63d9dc4e271b93aa47c12d40f95e24984b97144fb8b3c18f64736f6c63430008180033",
  "linkReferences": {},
  "deployedLinkReferences": {}
}